{
  "_format": "hh-sol-artifact-1",
  "contractName": "Keyboards",
  "sourceName": "contracts/Keyboards.sol",
  "abi": [
    {
      "anonymous": false,
      "inputs": [
        {
          "components": [
            {
              "internalType": "enum Keyboards.KeyboardKind",
              "name": "kind",
              "type": "uint8"
            },
            {
              "internalType": "bool",
              "name": "isPBT",
              "type": "bool"
            },
            {
              "internalType": "string",
              "name": "filter",
              "type": "string"
            },
            {
              "internalType": "address",
              "name": "owner",
              "type": "address"
            }
          ],
          "indexed": false,
          "internalType": "struct Keyboards.Keyboard",
          "name": "keyboard",
          "type": "tuple"
        }
      ],
      "name": "KeyboardCreated",
      "type": "event"
    },
    {
      "anonymous": false,
      "inputs": [
        {
          "indexed": false,
          "internalType": "address",
          "name": "recipient",
          "type": "address"
        },
        {
          "indexed": false,
          "internalType": "uint256",
          "name": "amount",
          "type": "uint256"
        }
      ],
      "name": "TipSent",
      "type": "event"
    },
    {
      "inputs": [
        {
          "internalType": "enum Keyboards.KeyboardKind",
          "name": "_kind",
          "type": "uint8"
        },
        {
          "internalType": "bool",
          "name": "_isPBT",
          "type": "bool"
        },
        {
          "internalType": "string",
          "name": "_filter",
          "type": "string"
        }
      ],
      "name": "create",
      "outputs": [],
      "stateMutability": "nonpayable",
      "type": "function"
    },
    {
      "inputs": [
        {
          "internalType": "uint256",
          "name": "",
          "type": "uint256"
        }
      ],
      "name": "createdKeyboards",
      "outputs": [
        {
          "internalType": "enum Keyboards.KeyboardKind",
          "name": "kind",
          "type": "uint8"
        },
        {
          "internalType": "bool",
          "name": "isPBT",
          "type": "bool"
        },
        {
          "internalType": "string",
          "name": "filter",
          "type": "string"
        },
        {
          "internalType": "address",
          "name": "owner",
          "type": "address"
        }
      ],
      "stateMutability": "view",
      "type": "function"
    },
    {
      "inputs": [],
      "name": "getKeyboards",
      "outputs": [
        {
          "components": [
            {
              "internalType": "enum Keyboards.KeyboardKind",
              "name": "kind",
              "type": "uint8"
            },
            {
              "internalType": "bool",
              "name": "isPBT",
              "type": "bool"
            },
            {
              "internalType": "string",
              "name": "filter",
              "type": "string"
            },
            {
              "internalType": "address",
              "name": "owner",
              "type": "address"
            }
          ],
          "internalType": "struct Keyboards.Keyboard[]",
          "name": "",
          "type": "tuple[]"
        }
      ],
      "stateMutability": "view",
      "type": "function"
    },
    {
      "inputs": [
        {
          "internalType": "uint256",
          "name": "_index",
          "type": "uint256"
        }
      ],
      "name": "tip",
      "outputs": [],
      "stateMutability": "payable",
      "type": "function"
    }
  ],
  "bytecode": "0x608060405234801561001057600080fd5b50610f94806100206000396000f3fe60806040526004361061003f5760003560e01c806352810aa114610044578063778bc8471461006f578063d80ad431146100af578063e8b69bc3146100d8575b600080fd5b34801561005057600080fd5b506100596100f4565b6040516100669190610894565b60405180910390f35b34801561007b57600080fd5b50610096600480360381019061009191906108f6565b610291565b6040516100a6949392919061099a565b60405180910390f35b3480156100bb57600080fd5b506100d660048036038101906100d19190610a9c565b610393565b005b6100f260048036038101906100ed91906108f6565b61053f565b005b60606000805480602002602001604051908101604052809291908181526020016000905b8282101561028857838290600052602060002090600302016040518060800160405290816000820160009054906101000a900460ff1660038111156101605761015f610638565b5b600381111561017257610171610638565b5b81526020016000820160019054906101000a900460ff161515151581526020016001820180546101a190610b3f565b80601f01602080910402602001604051908101604052809291908181526020018280546101cd90610b3f565b801561021a5780601f106101ef5761010080835404028352916020019161021a565b820191906000526020600020905b8154815290600101906020018083116101fd57829003601f168201915b505050505081526020016002820160009054906101000a900473ffffffffffffffffffffffffffffffffffffffff1673ffffffffffffffffffffffffffffffffffffffff1673ffffffffffffffffffffffffffffffffffffffff168152505081526020019060010190610118565b50505050905090565b600081815481106102a157600080fd5b90600052602060002090600302016000915090508060000160009054906101000a900460ff16908060000160019054906101000a900460ff16908060010180546102ea90610b3f565b80601f016020809104026020016040519081016040528092919081815260200182805461031690610b3f565b80156103635780601f1061033857610100808354040283529160200191610363565b820191906000526020600020905b81548152906001019060200180831161034657829003601f168201915b5050505050908060020160009054906101000a900473ffffffffffffffffffffffffffffffffffffffff16905084565b600060405180608001604052808660038111156103b3576103b2610638565b5b8152602001851515815260200184848080601f016020809104026020016040519081016040528093929190818152602001838380828437600081840152601f19601f8201169050808301925050505050505081526020013373ffffffffffffffffffffffffffffffffffffffff168152509050600081908060018154018082558091505060019003906000526020600020906003020160009091909190915060008201518160000160006101000a81548160ff0219169083600381111561047d5761047c610638565b5b021790555060208201518160000160016101000a81548160ff02191690831515021790555060408201518160010190816104b79190610d4b565b5060608201518160020160006101000a81548173ffffffffffffffffffffffffffffffffffffffff021916908373ffffffffffffffffffffffffffffffffffffffff16021790555050507f10a5f72cc15ad697630d0470547e58335ec196e4ce08851d095d19398b1cbdd7816040516105309190610e80565b60405180910390a15050505050565b600080828154811061055457610553610ea2565b5b906000526020600020906003020160020160009054906101000a900473ffffffffffffffffffffffffffffffffffffffff1690508073ffffffffffffffffffffffffffffffffffffffff166108fc349081150290604051600060405180830381858888f193505050501580156105ce573d6000803e3d6000fd5b507f171011172a05babdafffeb4c3cb97a07f0e1e7a0538eab4f4331336fb76fef058134604051610600929190610f35565b60405180910390a15050565b600081519050919050565b600082825260208201905092915050565b6000819050602082019050919050565b7f4e487b7100000000000000000000000000000000000000000000000000000000600052602160045260246000fd5b6004811061067857610677610638565b5b50565b600081905061068982610667565b919050565b60006106998261067b565b9050919050565b6106a98161068e565b82525050565b60008115159050919050565b6106c4816106af565b82525050565b600081519050919050565b600082825260208201905092915050565b60005b838110156107045780820151818401526020810190506106e9565b60008484015250505050565b6000601f19601f8301169050919050565b600061072c826106ca565b61073681856106d5565b93506107468185602086016106e6565b61074f81610710565b840191505092915050565b600073ffffffffffffffffffffffffffffffffffffffff82169050919050565b60006107858261075a565b9050919050565b6107958161077a565b82525050565b60006080830160008301516107b360008601826106a0565b5060208301516107c660208601826106bb565b50604083015184820360408601526107de8282610721565b91505060608301516107f3606086018261078c565b508091505092915050565b600061080a838361079b565b905092915050565b6000602082019050919050565b600061082a8261060c565b6108348185610617565b93508360208202850161084685610628565b8060005b85811015610882578484038952815161086385826107fe565b945061086e83610812565b925060208a0199505060018101905061084a565b50829750879550505050505092915050565b600060208201905081810360008301526108ae818461081f565b905092915050565b600080fd5b600080fd5b6000819050919050565b6108d3816108c0565b81146108de57600080fd5b50565b6000813590506108f0816108ca565b92915050565b60006020828403121561090c5761090b6108b6565b5b600061091a848285016108e1565b91505092915050565b61092c8161068e565b82525050565b61093b816106af565b82525050565b600082825260208201905092915050565b600061095d826106ca565b6109678185610941565b93506109778185602086016106e6565b61098081610710565b840191505092915050565b6109948161077a565b82525050565b60006080820190506109af6000830187610923565b6109bc6020830186610932565b81810360408301526109ce8185610952565b90506109dd606083018461098b565b95945050505050565b600481106109f357600080fd5b50565b600081359050610a05816109e6565b92915050565b610a14816106af565b8114610a1f57600080fd5b50565b600081359050610a3181610a0b565b92915050565b600080fd5b600080fd5b600080fd5b60008083601f840112610a5c57610a5b610a37565b5b8235905067ffffffffffffffff811115610a7957610a78610a3c565b5b602083019150836001820283011115610a9557610a94610a41565b5b9250929050565b60008060008060608587031215610ab657610ab56108b6565b5b6000610ac4878288016109f6565b9450506020610ad587828801610a22565b935050604085013567ffffffffffffffff811115610af657610af56108bb565b5b610b0287828801610a46565b925092505092959194509250565b7f4e487b7100000000000000000000000000000000000000000000000000000000600052602260045260246000fd5b60006002820490506001821680610b5757607f821691505b602082108103610b6a57610b69610b10565b5b50919050565b7f4e487b7100000000000000000000000000000000000000000000000000000000600052604160045260246000fd5b60008190508160005260206000209050919050565b60006020601f8301049050919050565b600082821b905092915050565b600060088302610c017fffffffffffffffffffffffffffffffffffffffffffffffffffffffffffffffff82610bc4565b610c0b8683610bc4565b95508019841693508086168417925050509392505050565b6000819050919050565b6000610c48610c43610c3e846108c0565b610c23565b6108c0565b9050919050565b6000819050919050565b610c6283610c2d565b610c76610c6e82610c4f565b848454610bd1565b825550505050565b600090565b610c8b610c7e565b610c96818484610c59565b505050565b5b81811015610cba57610caf600082610c83565b600181019050610c9c565b5050565b601f821115610cff57610cd081610b9f565b610cd984610bb4565b81016020851015610ce8578190505b610cfc610cf485610bb4565b830182610c9b565b50505b505050565b600082821c905092915050565b6000610d2260001984600802610d04565b1980831691505092915050565b6000610d3b8383610d11565b9150826002028217905092915050565b610d54826106ca565b67ffffffffffffffff811115610d6d57610d6c610b70565b5b610d778254610b3f565b610d82828285610cbe565b600060209050601f831160018114610db55760008415610da3578287015190505b610dad8582610d2f565b865550610e15565b601f198416610dc386610b9f565b60005b82811015610deb57848901518255600182019150602085019450602081019050610dc6565b86831015610e085784890151610e04601f891682610d11565b8355505b6001600288020188555050505b505050505050565b6000608083016000830151610e3560008601826106a0565b506020830151610e4860208601826106bb565b5060408301518482036040860152610e608282610721565b9150506060830151610e75606086018261078c565b508091505092915050565b60006020820190508181036000830152610e9a8184610e1d565b905092915050565b7f4e487b7100000000000000000000000000000000000000000000000000000000600052603260045260246000fd5b6000610eec610ee7610ee28461075a565b610c23565b61075a565b9050919050565b6000610efe82610ed1565b9050919050565b6000610f1082610ef3565b9050919050565b610f2081610f05565b82525050565b610f2f816108c0565b82525050565b6000604082019050610f4a6000830185610f17565b610f576020830184610f26565b939250505056fea26469706673582212207d4c477c92b833a86ecd9af27aff21f77ff1d1b03d4d60c398bf879b5b4bd44264736f6c63430008110033",
  "linkReferences": {},
  "deployedLinkReferences": {}
}